{
  "contractName": "FactoryBallot",
  "abi": [
    {
      "inputs": [],
      "stateMutability": "nonpayable",
      "type": "constructor"
    },
    {
      "inputs": [],
      "name": "chairperson",
      "outputs": [
        {
          "internalType": "address",
          "name": "",
          "type": "address"
        }
      ],
      "stateMutability": "view",
      "type": "function",
      "constant": true
    },
    {
      "inputs": [
        {
          "internalType": "address",
          "name": "",
          "type": "address"
        }
      ],
      "name": "voters",
      "outputs": [
        {
          "internalType": "string",
          "name": "name",
          "type": "string"
        },
        {
          "internalType": "string",
          "name": "lastname",
          "type": "string"
        },
        {
          "internalType": "string",
          "name": "email",
          "type": "string"
        },
        {
          "internalType": "uint256",
          "name": "weight",
          "type": "uint256"
        }
      ],
      "stateMutability": "view",
      "type": "function",
      "constant": true
    },
    {
      "inputs": [
        {
          "internalType": "address",
          "name": "voter",
          "type": "address"
        },
        {
          "internalType": "string",
          "name": "name",
          "type": "string"
        },
        {
          "internalType": "string",
          "name": "lastname",
          "type": "string"
        },
        {
          "internalType": "string",
          "name": "email",
          "type": "string"
        }
      ],
      "name": "registerVoters",
      "outputs": [],
      "stateMutability": "nonpayable",
      "type": "function"
    },
    {
      "inputs": [
        {
          "internalType": "address",
          "name": "voter",
          "type": "address"
        }
      ],
      "name": "getInfoVoter",
      "outputs": [
        {
          "internalType": "string",
          "name": "name",
          "type": "string"
        },
        {
          "internalType": "string",
          "name": "lastname",
          "type": "string"
        },
        {
          "internalType": "string",
          "name": "email",
          "type": "string"
        }
      ],
      "stateMutability": "view",
      "type": "function",
      "constant": true
    },
    {
      "inputs": [
        {
          "internalType": "string",
          "name": "title",
          "type": "string"
        },
        {
          "internalType": "string",
          "name": "description",
          "type": "string"
        }
      ],
      "name": "setProposal",
      "outputs": [],
      "stateMutability": "payable",
      "type": "function",
      "payable": true
    },
    {
      "inputs": [
        {
          "internalType": "address",
          "name": "addr",
          "type": "address"
        },
        {
          "internalType": "string",
          "name": "proposalTitle",
          "type": "string"
        }
      ],
      "name": "getProposal",
      "outputs": [
        {
          "components": [
            {
              "internalType": "string",
              "name": "title",
              "type": "string"
            },
            {
              "internalType": "string",
              "name": "description",
              "type": "string"
            },
            {
              "internalType": "uint256",
              "name": "votes",
              "type": "uint256"
            },
            {
              "internalType": "uint256",
              "name": "weight",
              "type": "uint256"
            }
          ],
          "internalType": "struct FactoryBallot.Proposal",
          "name": "result",
          "type": "tuple"
        }
      ],
      "stateMutability": "view",
      "type": "function",
      "constant": true
    },
    {
      "inputs": [
        {
          "internalType": "address",
          "name": "addr",
          "type": "address"
        },
        {
          "internalType": "string",
          "name": "proposalTitle",
          "type": "string"
        }
      ],
      "name": "vote",
      "outputs": [],
      "stateMutability": "payable",
      "type": "function",
      "payable": true
    },
    {
      "inputs": [
        {
          "internalType": "address",
          "name": "addr",
          "type": "address"
        },
        {
          "internalType": "string",
          "name": "proposalTitle",
          "type": "string"
        }
      ],
      "name": "getVotesForProposal",
      "outputs": [
        {
          "internalType": "uint256",
          "name": "voteCount",
          "type": "uint256"
        }
      ],
      "stateMutability": "view",
      "type": "function",
      "constant": true
    },
    {
      "inputs": [],
      "name": "getOwnProposals",
      "outputs": [
        {
          "components": [
            {
              "internalType": "string",
              "name": "title",
              "type": "string"
            },
            {
              "internalType": "string",
              "name": "description",
              "type": "string"
            },
            {
              "internalType": "uint256",
              "name": "votes",
              "type": "uint256"
            },
            {
              "internalType": "uint256",
              "name": "weight",
              "type": "uint256"
            }
          ],
          "internalType": "struct FactoryBallot.Proposal[]",
          "name": "ownProposals",
          "type": "tuple[]"
        }
      ],
      "stateMutability": "view",
      "type": "function",
      "constant": true
    }
  ],
  "bytecode": "0x608060405234801561001057600080fd5b50336000806101000a81548173ffffffffffffffffffffffffffffffffffffffff021916908373ffffffffffffffffffffffffffffffffffffffff160217905550612b92806100606000396000f3fe6080604052600436106100865760003560e01c80636d18cca9116100595780636d18cca914610117578063a3ec138d14610156578063aacc937f14610196578063bcceaac9146101d3578063f007cde21461021057610086565b80631767bdfd1461008b5780631bf533a4146100b45780632e4176cf146100d05780634092131d146100fb575b600080fd5b34801561009757600080fd5b506100b260048036038101906100ad9190611f18565b61023b565b005b6100ce60048036038101906100c99190611ec4565b6103a8565b005b3480156100dc57600080fd5b506100e5610982565b6040516100f291906123d9565b60405180910390f35b61011560048036038101906101109190611fc3565b6109a6565b005b34801561012357600080fd5b5061013e60048036038101906101399190611e9b565b610b66565b60405161014d93929190612416565b60405180910390f35b34801561016257600080fd5b5061017d60048036038101906101789190611e9b565b610e3b565b60405161018d9493929190612462565b60405180910390f35b3480156101a257600080fd5b506101bd60048036038101906101b89190611ec4565b611003565b6040516101ca91906125de565b60405180910390f35b3480156101df57600080fd5b506101fa60048036038101906101f59190611ec4565b611494565b60405161020791906125bc565b60405180910390f35b34801561021c57600080fd5b50610225611a4d565b60405161023291906123f4565b60405180910390f35b60008054906101000a900473ffffffffffffffffffffffffffffffffffffffff1673ffffffffffffffffffffffffffffffffffffffff163373ffffffffffffffffffffffffffffffffffffffff16146102c9576040517f08c379a00000000000000000000000000000000000000000000000000000000081526004016102c09061253c565b60405180910390fd5b836000601460ff161415610312576040517f08c379a00000000000000000000000000000000000000000000000000000000081526004016103099061259c565b60405180910390fd5b6000600160008773ffffffffffffffffffffffffffffffffffffffff1673ffffffffffffffffffffffffffffffffffffffff16815260200190815260200160002090508481600001908051906020019061036d929190611d53565b5083816001019080519060200190610386929190611d53565b508281600201908051906020019061039f929190611d53565b50505050505050565b816000601460ff1614156103f1576040517f08c379a00000000000000000000000000000000000000000000000000000000081526004016103e89061259c565b60405180910390fd5b826000600160008373ffffffffffffffffffffffffffffffffffffffff1673ffffffffffffffffffffffffffffffffffffffff1681526020019081526020016000206040518060a001604052908160008201805461044e906127a9565b80601f016020809104026020016040519081016040528092919081815260200182805461047a906127a9565b80156104c75780601f1061049c576101008083540402835291602001916104c7565b820191906000526020600020905b8154815290600101906020018083116104aa57829003601f168201915b505050505081526020016001820180546104e0906127a9565b80601f016020809104026020016040519081016040528092919081815260200182805461050c906127a9565b80156105595780601f1061052e57610100808354040283529160200191610559565b820191906000526020600020905b81548152906001019060200180831161053c57829003601f168201915b50505050508152602001600282018054610572906127a9565b80601f016020809104026020016040519081016040528092919081815260200182805461059e906127a9565b80156105eb5780601f106105c0576101008083540402835291602001916105eb565b820191906000526020600020905b8154815290600101906020018083116105ce57829003601f168201915b505050505081526020016003820154815260200160048201805480602002602001604051908101604052809291908181526020016000905b8282101561078d5783829060005260206000209060040201604051806080016040529081600082018054610656906127a9565b80601f0160208091040260200160405190810160405280929190818152602001828054610682906127a9565b80156106cf5780601f106106a4576101008083540402835291602001916106cf565b820191906000526020600020905b8154815290600101906020018083116106b257829003601f168201915b505050505081526020016001820180546106e8906127a9565b80601f0160208091040260200160405190810160405280929190818152602001828054610714906127a9565b80156107615780601f1061073657610100808354040283529160200191610761565b820191906000526020600020905b81548152906001019060200180831161074457829003601f168201915b505050505081526020016002820154815260200160038201548152505081526020019060010190610623565b505050508152505090506000816080015190506000815114156107e5576040517f08c379a00000000000000000000000000000000000000000000000000000000081526004016107dc906124bc565b60405180910390fd5b6000341415610829576040517f08c379a00000000000000000000000000000000000000000000000000000000081526004016108209061251c565b60405180910390fd5b6000600160008873ffffffffffffffffffffffffffffffffffffffff1673ffffffffffffffffffffffffffffffffffffffff1681526020019081526020016000209050600081600401905060008780519060200120905060005b82805490508110156109765760008382815481106108ca577f4e487b7100000000000000000000000000000000000000000000000000000000600052603260045260246000fd5b90600052602060002090600402016000016040516108e891906123c2565b6040518091039020905080831415610962576001848381548110610935577f4e487b7100000000000000000000000000000000000000000000000000000000600052603260045260246000fd5b9060005260206000209060040201600201600082825461095591906126d5565b9250508190555050610976565b50808061096e9061280c565b915050610883565b50505050505050505050565b60008054906101000a900473ffffffffffffffffffffffffffffffffffffffff1681565b60008054906101000a900473ffffffffffffffffffffffffffffffffffffffff1673ffffffffffffffffffffffffffffffffffffffff163373ffffffffffffffffffffffffffffffffffffffff161415610a35576040517f08c379a0000000000000000000000000000000000000000000000000000000008152600401610a2c906124fc565b60405180910390fd5b6000341415610a79576040517f08c379a0000000000000000000000000000000000000000000000000000000008152600401610a709061251c565b60405180910390fd5b6000600160003373ffffffffffffffffffffffffffffffffffffffff1673ffffffffffffffffffffffffffffffffffffffff16815260200190815260200160002090506000604051806080016040528085815260200184815260200160008152602001348152509050816004018190806001815401808255809150506001900390600052602060002090600402016000909190919091506000820151816000019080519060200190610b2c929190611d53565b506020820151816001019080519060200190610b49929190611d53565b506040820151816002015560608201518160030155505050505050565b606080606060008054906101000a900473ffffffffffffffffffffffffffffffffffffffff1673ffffffffffffffffffffffffffffffffffffffff163373ffffffffffffffffffffffffffffffffffffffff1614610bf9576040517f08c379a0000000000000000000000000000000000000000000000000000000008152600401610bf09061255c565b60405180910390fd5b836000601460ff161415610c42576040517f08c379a0000000000000000000000000000000000000000000000000000000008152600401610c399061259c565b60405180910390fd5b6000600160008773ffffffffffffffffffffffffffffffffffffffff1673ffffffffffffffffffffffffffffffffffffffff1681526020019081526020016000209050806000018054610c94906127a9565b80601f0160208091040260200160405190810160405280929190818152602001828054610cc0906127a9565b8015610d0d5780601f10610ce257610100808354040283529160200191610d0d565b820191906000526020600020905b815481529060010190602001808311610cf057829003601f168201915b50505050509450806001018054610d23906127a9565b80601f0160208091040260200160405190810160405280929190818152602001828054610d4f906127a9565b8015610d9c5780601f10610d7157610100808354040283529160200191610d9c565b820191906000526020600020905b815481529060010190602001808311610d7f57829003601f168201915b50505050509350806002018054610db2906127a9565b80601f0160208091040260200160405190810160405280929190818152602001828054610dde906127a9565b8015610e2b5780601f10610e0057610100808354040283529160200191610e2b565b820191906000526020600020905b815481529060010190602001808311610e0e57829003601f168201915b5050505050925050509193909250565b6001602052806000526040600020600091509050806000018054610e5e906127a9565b80601f0160208091040260200160405190810160405280929190818152602001828054610e8a906127a9565b8015610ed75780601f10610eac57610100808354040283529160200191610ed7565b820191906000526020600020905b815481529060010190602001808311610eba57829003601f168201915b505050505090806001018054610eec906127a9565b80601f0160208091040260200160405190810160405280929190818152602001828054610f18906127a9565b8015610f655780601f10610f3a57610100808354040283529160200191610f65565b820191906000526020600020905b815481529060010190602001808311610f4857829003601f168201915b505050505090806002018054610f7a906127a9565b80601f0160208091040260200160405190810160405280929190818152602001828054610fa6906127a9565b8015610ff35780601f10610fc857610100808354040283529160200191610ff3565b820191906000526020600020905b815481529060010190602001808311610fd657829003601f168201915b5050505050908060030154905084565b600080600160008573ffffffffffffffffffffffffffffffffffffffff1673ffffffffffffffffffffffffffffffffffffffff1681526020019081526020016000206040518060a0016040529081600082018054611060906127a9565b80601f016020809104026020016040519081016040528092919081815260200182805461108c906127a9565b80156110d95780601f106110ae576101008083540402835291602001916110d9565b820191906000526020600020905b8154815290600101906020018083116110bc57829003601f168201915b505050505081526020016001820180546110f2906127a9565b80601f016020809104026020016040519081016040528092919081815260200182805461111e906127a9565b801561116b5780601f106111405761010080835404028352916020019161116b565b820191906000526020600020905b81548152906001019060200180831161114e57829003601f168201915b50505050508152602001600282018054611184906127a9565b80601f01602080910402602001604051908101604052809291908181526020018280546111b0906127a9565b80156111fd5780601f106111d2576101008083540402835291602001916111fd565b820191906000526020600020905b8154815290600101906020018083116111e057829003601f168201915b505050505081526020016003820154815260200160048201805480602002602001604051908101604052809291908181526020016000905b8282101561139f5783829060005260206000209060040201604051806080016040529081600082018054611268906127a9565b80601f0160208091040260200160405190810160405280929190818152602001828054611294906127a9565b80156112e15780601f106112b6576101008083540402835291602001916112e1565b820191906000526020600020905b8154815290600101906020018083116112c457829003601f168201915b505050505081526020016001820180546112fa906127a9565b80601f0160208091040260200160405190810160405280929190818152602001828054611326906127a9565b80156113735780601f1061134857610100808354040283529160200191611373565b820191906000526020600020905b81548152906001019060200180831161135657829003601f168201915b505050505081526020016002820154815260200160038201548152505081526020019060010190611235565b5050505081525050905060008160800151905060006113bd85611d42565b905060005b825181101561148957600061141a848381518110611409577f4e487b7100000000000000000000000000000000000000000000000000000000600052603260045260246000fd5b602002602001015160000151611d42565b9050828114156114755783828151811061145d577f4e487b7100000000000000000000000000000000000000000000000000000000600052603260045260246000fd5b6020026020010151604001519550505050505061148e565b5080806114819061280c565b9150506113c2565b505050505b92915050565b61149c611dd9565b60008054906101000a900473ffffffffffffffffffffffffffffffffffffffff1673ffffffffffffffffffffffffffffffffffffffff163373ffffffffffffffffffffffffffffffffffffffff16141561152b576040517f08c379a0000000000000000000000000000000000000000000000000000000008152600401611522906124fc565b60405180910390fd5b826000601460ff161415611574576040517f08c379a000000000000000000000000000000000000000000000000000000000815260040161156b9061259c565b60405180910390fd5b8260008190506000815114156115bf576040517f08c379a00000000000000000000000000000000000000000000000000000000081526004016115b69061257c565b60405180910390fd5b6000600160008873ffffffffffffffffffffffffffffffffffffffff1673ffffffffffffffffffffffffffffffffffffffff1681526020019081526020016000206040518060a001604052908160008201805461161b906127a9565b80601f0160208091040260200160405190810160405280929190818152602001828054611647906127a9565b80156116945780601f1061166957610100808354040283529160200191611694565b820191906000526020600020905b81548152906001019060200180831161167757829003601f168201915b505050505081526020016001820180546116ad906127a9565b80601f01602080910402602001604051908101604052809291908181526020018280546116d9906127a9565b80156117265780601f106116fb57610100808354040283529160200191611726565b820191906000526020600020905b81548152906001019060200180831161170957829003601f168201915b5050505050815260200160028201805461173f906127a9565b80601f016020809104026020016040519081016040528092919081815260200182805461176b906127a9565b80156117b85780601f1061178d576101008083540402835291602001916117b8565b820191906000526020600020905b81548152906001019060200180831161179b57829003601f168201915b505050505081526020016003820154815260200160048201805480602002602001604051908101604052809291908181526020016000905b8282101561195a5783829060005260206000209060040201604051806080016040529081600082018054611823906127a9565b80601f016020809104026020016040519081016040528092919081815260200182805461184f906127a9565b801561189c5780601f106118715761010080835404028352916020019161189c565b820191906000526020600020905b81548152906001019060200180831161187f57829003601f168201915b505050505081526020016001820180546118b5906127a9565b80601f01602080910402602001604051908101604052809291908181526020018280546118e1906127a9565b801561192e5780601f106119035761010080835404028352916020019161192e565b820191906000526020600020905b81548152906001019060200180831161191157829003601f168201915b5050505050815260200160028201548152602001600382015481525050815260200190600101906117f0565b5050505081525050905060005b816080015151811015611a41576000826080015182815181106119b3577f4e487b7100000000000000000000000000000000000000000000000000000000600052603260045260246000fd5b60200260200101516000015180519060200120905060008880519060200120905080821415611a2c5783608001518381518110611a19577f4e487b7100000000000000000000000000000000000000000000000000000000600052603260045260246000fd5b6020026020010151975050505050611a44565b50508080611a399061280c565b915050611967565b50505b50505092915050565b606060008054906101000a900473ffffffffffffffffffffffffffffffffffffffff1673ffffffffffffffffffffffffffffffffffffffff163373ffffffffffffffffffffffffffffffffffffffff161415611ade576040517f08c379a0000000000000000000000000000000000000000000000000000000008152600401611ad5906124fc565b60405180910390fd5b336000601460ff161415611b27576040517f08c379a0000000000000000000000000000000000000000000000000000000008152600401611b1e9061259c565b60405180910390fd5b600160003373ffffffffffffffffffffffffffffffffffffffff1673ffffffffffffffffffffffffffffffffffffffff168152602001908152602001600020600401805480602002602001604051908101604052809291908181526020016000905b82821015611cf35783829060005260206000209060040201604051806080016040529081600082018054611bbc906127a9565b80601f0160208091040260200160405190810160405280929190818152602001828054611be8906127a9565b8015611c355780601f10611c0a57610100808354040283529160200191611c35565b820191906000526020600020905b815481529060010190602001808311611c1857829003601f168201915b50505050508152602001600182018054611c4e906127a9565b80601f0160208091040260200160405190810160405280929190818152602001828054611c7a906127a9565b8015611cc75780601f10611c9c57610100808354040283529160200191611cc7565b820191906000526020600020905b815481529060010190602001808311611caa57829003601f168201915b505050505081526020016002820154815260200160038201548152505081526020019060010190611b89565b505050509150600082511415611d3e576040517f08c379a0000000000000000000000000000000000000000000000000000000008152600401611d35906124dc565b60405180910390fd5b5090565b600081805190602001209050919050565b828054611d5f906127a9565b90600052602060002090601f016020900481019282611d815760008555611dc8565b82601f10611d9a57805160ff1916838001178555611dc8565b82800160010185558215611dc8579182015b82811115611dc7578251825591602001919060010190611dac565b5b509050611dd59190611e01565b5090565b6040518060800160405280606081526020016060815260200160008152602001600081525090565b5b80821115611e1a576000816000905550600101611e02565b5090565b6000611e31611e2c8461261e565b6125f9565b905082815260208101848484011115611e4957600080fd5b611e54848285612767565b509392505050565b600081359050611e6b81612b45565b92915050565b600082601f830112611e8257600080fd5b8135611e92848260208601611e1e565b91505092915050565b600060208284031215611ead57600080fd5b6000611ebb84828501611e5c565b91505092915050565b60008060408385031215611ed757600080fd5b6000611ee585828601611e5c565b925050602083013567ffffffffffffffff811115611f0257600080fd5b611f0e85828601611e71565b9150509250929050565b60008060008060808587031215611f2e57600080fd5b6000611f3c87828801611e5c565b945050602085013567ffffffffffffffff811115611f5957600080fd5b611f6587828801611e71565b935050604085013567ffffffffffffffff811115611f8257600080fd5b611f8e87828801611e71565b925050606085013567ffffffffffffffff811115611fab57600080fd5b611fb787828801611e71565b91505092959194509250565b60008060408385031215611fd657600080fd5b600083013567ffffffffffffffff811115611ff057600080fd5b611ffc85828601611e71565b925050602083013567ffffffffffffffff81111561201957600080fd5b61202585828601611e71565b9150509250929050565b600061203b83836122d0565b905092915050565b61204c8161272b565b82525050565b600061205d82612674565b6120678185612697565b9350836020820285016120798561264f565b8060005b858110156120b55784840389528151612096858261202f565b94506120a18361268a565b925060208a0199505060018101905061207d565b50829750879550505050505092915050565b600081546120d4816127a9565b6120de81866126a8565b945060018216600081146120f9576001811461210a5761213d565b60ff1983168652818601935061213d565b6121138561265f565b60005b8381101561213557815481890152600182019150602081019050612116565b838801955050505b50505092915050565b60006121518261267f565b61215b81856126b3565b935061216b818560208601612776565b612174816128e2565b840191505092915050565b600061218a8261267f565b61219481856126c4565b93506121a4818560208601612776565b6121ad816128e2565b840191505092915050565b60006121c56022836126c4565b91506121d0826128f3565b604082019050919050565b60006121e86031836126c4565b91506121f382612942565b604082019050919050565b600061220b602d836126c4565b915061221682612991565b604082019050919050565b600061222e6021836126c4565b9150612239826129e0565b604082019050919050565b60006122516028836126c4565b915061225c82612a2f565b604082019050919050565b60006122746024836126c4565b915061227f82612a7e565b604082019050919050565b60006122976023836126c4565b91506122a282612acd565b604082019050919050565b60006122ba6013836126c4565b91506122c582612b1c565b602082019050919050565b600060808301600083015184820360008601526122ed8282612146565b915050602083015184820360208601526123078282612146565b915050604083015161231c60408601826123a4565b50606083015161232f60608601826123a4565b508091505092915050565b600060808301600083015184820360008601526123578282612146565b915050602083015184820360208601526123718282612146565b915050604083015161238660408601826123a4565b50606083015161239960608601826123a4565b508091505092915050565b6123ad8161275d565b82525050565b6123bc8161275d565b82525050565b60006123ce82846120c7565b915081905092915050565b60006020820190506123ee6000830184612043565b92915050565b6000602082019050818103600083015261240e8184612052565b905092915050565b60006060820190508181036000830152612430818661217f565b90508181036020830152612444818561217f565b90508181036040830152612458818461217f565b9050949350505050565b6000608082019050818103600083015261247c818761217f565b90508181036020830152612490818661217f565b905081810360408301526124a4818561217f565b90506124b360608301846123b3565b95945050505050565b600060208201905081810360008301526124d5816121b8565b9050919050565b600060208201905081810360008301526124f5816121db565b9050919050565b60006020820190508181036000830152612515816121fe565b9050919050565b6000602082019050818103600083015261253581612221565b9050919050565b6000602082019050818103600083015261255581612244565b9050919050565b6000602082019050818103600083015261257581612267565b9050919050565b600060208201905081810360008301526125958161228a565b9050919050565b600060208201905081810360008301526125b5816122ad565b9050919050565b600060208201905081810360008301526125d6818461233a565b905092915050565b60006020820190506125f360008301846123b3565b92915050565b6000612603612614565b905061260f82826127db565b919050565b6000604051905090565b600067ffffffffffffffff821115612639576126386128b3565b5b612642826128e2565b9050602081019050919050565b6000819050602082019050919050565b60008190508160005260206000209050919050565b600081519050919050565b600081519050919050565b6000602082019050919050565b600082825260208201905092915050565b600081905092915050565b600082825260208201905092915050565b600082825260208201905092915050565b60006126e08261275d565b91506126eb8361275d565b9250827fffffffffffffffffffffffffffffffffffffffffffffffffffffffffffffffff038211156127205761271f612855565b5b828201905092915050565b60006127368261273d565b9050919050565b600073ffffffffffffffffffffffffffffffffffffffff82169050919050565b6000819050919050565b82818337600083830152505050565b60005b83811015612794578082015181840152602081019050612779565b838111156127a3576000848401525b50505050565b600060028204905060018216806127c157607f821691505b602082108114156127d5576127d4612884565b5b50919050565b6127e4826128e2565b810181811067ffffffffffffffff82111715612803576128026128b3565b5b80604052505050565b60006128178261275d565b91507fffffffffffffffffffffffffffffffffffffffffffffffffffffffffffffffff82141561284a57612849612855565b5b600182019050919050565b7f4e487b7100000000000000000000000000000000000000000000000000000000600052601160045260246000fd5b7f4e487b7100000000000000000000000000000000000000000000000000000000600052602260045260246000fd5b7f4e487b7100000000000000000000000000000000000000000000000000000000600052604160045260246000fd5b6000601f19601f8301169050919050565b7f4163636f756e7420646f65736e2774206861766520616e792070726f706f736160008201527f6c73000000000000000000000000000000000000000000000000000000000000602082015250565b7f4e6f742070726f706f73616c7320666f722074686520616464726573732c206f60008201527f7065726174696f6e207265766572746564000000000000000000000000000000602082015250565b7f4368616972706572736f6e20646f65736e277420686176652070726f706f736160008201527f6c73206f6620686973206f776e00000000000000000000000000000000000000602082015250565b7f596f75206d7573742070617920666f722074686973207472616e73616374696f60008201527f6e00000000000000000000000000000000000000000000000000000000000000602082015250565b7f4f6e6c79206368616972706572736f6e2063616e207265676973746572206e6560008201527f7720766f74657273000000000000000000000000000000000000000000000000602082015250565b7f4f6e6c79206368616972706572736f6e2063616e2073656520696e666f72207660008201527f6f74657200000000000000000000000000000000000000000000000000000000602082015250565b7f596f75206d7573742070726f76696465207468652070726f706f73616c20746960008201527f746c650000000000000000000000000000000000000000000000000000000000602082015250565b7f4e6f206164647265737320737570706c69656400000000000000000000000000600082015250565b612b4e8161272b565b8114612b5957600080fd5b5056fea2646970667358221220071795985fa0b6277c7e9143ac51c1cb5c90b101123af25aa8e4bf45b129d69c64736f6c63430008030033",
  "immutableReferences": {},
  "source": "pragma solidity 0.8.3;\n\ncontract FactoryBallot {\n    address public chairperson;\n\n    struct Proposal {\n        string title;\n        string description;\n        uint256 votes;\n        uint256 weight;\n    }\n\n    struct Voter {\n        string name;\n        string lastname;\n        string email;\n        uint256 weight;\n        Proposal[] proposals;\n    }\n\n    mapping(address => Voter) public voters;\n\n    constructor() {\n        chairperson = msg.sender;\n    }\n\n    modifier onlyChairperson {\n        require(\n            msg.sender == chairperson,\n            \"Only chairperson can register new voters\"\n        );\n        _;\n    }\n\n    modifier checkInfoVoter {\n        require(\n            msg.sender == chairperson,\n            \"Only chairperson can see infor voter\"\n        );\n        _;\n    }\n\n    modifier checkAddressNotEmpty(address v) {\n        require(bytes20(v).length != 0, \"No address supplied\");\n        _;\n    }\n\n    modifier checkPay {\n        require(msg.value != 0, \"You must pay for this transaction\");\n        _;\n    }\n\n    modifier checkProposalTitleNotEmpty(string memory proposalTitle) {\n        bytes memory p = bytes(proposalTitle);\n        require(p.length != 0, \"You must provide the proposal title\");\n        _;\n    }\n\n    modifier checkNotChairperson {\n        require(\n            msg.sender != chairperson,\n            \"Chairperson doesn't have proposals of his own\"\n        );\n        _;\n    }\n\n    modifier checkAddressHasProposals(address addr) {\n        Voter memory v = voters[addr];\n        Proposal[] memory p = v.proposals;\n        require(p.length != 0, \"Account doesn't have any proposals\");\n        _;\n    }\n\n    // this method could be placed on a library file\n    function convertStringToBytes32(bytes memory bytesToConver)\n        internal\n        pure\n        returns (bytes32 dataConverted)\n    {\n        dataConverted = keccak256(bytesToConver);\n        return dataConverted;\n    }\n\n    // CHAIRPERONS REGISTER VOTERS\n    function registerVoters(\n        address voter,\n        string memory name,\n        string memory lastname,\n        string memory email\n    ) public onlyChairperson checkAddressNotEmpty(voter) {\n        Voter storage v = voters[voter];\n        v.name = name;\n        v.lastname = lastname;\n        v.email = email;\n    }\n\n    function getInfoVoter(address voter)\n        public\n        view\n        checkInfoVoter\n        checkAddressNotEmpty(voter)\n        returns (\n            string memory name,\n            string memory lastname,\n            string memory email\n        )\n    {\n        Voter storage v = voters[voter];\n        name = v.name;\n        lastname = v.lastname;\n        email = v.email;\n\n        return (name, lastname, email);\n    }\n\n    // set the proposal and it could contain weight in order\n    // to increase the chances to be on top of the proposal list\n    function setProposal(string memory title, string memory description)\n        public\n        payable\n        checkNotChairperson\n        checkPay\n    {\n        Voter storage voter = voters[msg.sender];\n\n        // note: msg.value represent also the weigth of the proposal\n        Proposal memory p = Proposal(title, description, 0, msg.value);\n        voter.proposals.push(p);\n    }\n\n    function getProposal(address addr, string memory proposalTitle)\n        public\n        view\n        checkNotChairperson\n        checkAddressNotEmpty(addr)\n        checkProposalTitleNotEmpty(proposalTitle)\n        returns (Proposal memory result)\n    {\n        Voter memory v = voters[addr];\n        for (uint256 i = 0; i < v.proposals.length; i++) {\n            // we do this becauses is the only way\n            // as far as I know, to compare to strings\n            bytes32 str1 = keccak256(bytes(v.proposals[i].title));\n            bytes32 str2 = keccak256(bytes(proposalTitle));\n            if (str1 == str2) {\n                result = v.proposals[i];\n                return result;\n            }\n        }\n    }\n\n    function vote(address addr, string memory proposalTitle)\n        public\n        payable\n        checkAddressNotEmpty(addr)\n        checkAddressHasProposals(addr)\n        checkPay\n    {\n        Voter storage voter = voters[addr];\n        Proposal[] storage proposals = voter.proposals;\n\n        bytes32 proposalTitleForComparison = keccak256(bytes(proposalTitle));\n        for (uint256 i = 0; i < proposals.length; i++) {\n            bytes32 proposalOfVoter = keccak256(bytes(proposals[i].title));\n            if (proposalTitleForComparison == proposalOfVoter) {\n                proposals[i].votes += 1;\n                break;\n            }\n        }\n    }\n\n    function getVotesForProposal(address addr, string memory proposalTitle)\n        public\n        view\n        returns (uint256 voteCount)\n    {\n        Voter memory voter = voters[addr];\n        Proposal[] memory proposals = voter.proposals;\n\n        bytes32 proposalTitleConverted =\n            convertStringToBytes32(bytes(proposalTitle));\n        for (uint256 i = 0; i < proposals.length; i++) {\n            bytes32 proposalVoterTitleConverted =\n                convertStringToBytes32(bytes(proposals[i].title));\n            if (proposalVoterTitleConverted == proposalTitleConverted) {\n                return proposals[i].votes;\n            }\n        }\n    }\n\n    function getOwnProposals()\n        public\n        view\n        checkNotChairperson\n        checkAddressNotEmpty(msg.sender)\n        returns (Proposal[] memory ownProposals)\n    {\n        ownProposals = voters[msg.sender].proposals;\n        if (ownProposals.length == 0) {\n            revert(\"Not proposals for the address, operation reverted\");\n        }\n        return ownProposals;\n    }\n}\n",
  "sourcePath": "/home/nrriquel/Documents/dapps/BIA/dappV1/Ballot-Dapp/ballot-demo/contracts/Ballot.sol",
  "compiler": {
    "name": "solc",
    "version": "0.8.3+commit.8d00100c.Emscripten.clang"
  },
  "schemaVersion": "3.3.4",
  "updatedAt": "2021-04-18T06:12:37.510Z",
  "networkType": "ethereum",
  "devdoc": {
    "kind": "dev",
    "methods": {},
    "version": 1
  },
  "userdoc": {
    "kind": "user",
    "methods": {},
    "version": 1
  }
}